:020000040000FA
:040000007EEF00F09F
:020008001000E6
:080018001000770EE8CF83FF12
:100020001200836A1200530E016E320E006E000041
:1000300000000000000000000000000000000000C0
:1000400000000000000000000000000000000000B0
:1000500000000000000000000000000000000000A0
:100060000000000000000000000000000000000090
:100070000000000000000000000000000000000080
:100080000000000000000000000000000000000070
:100090000000000000000000000000000000000060
:1000A0000000000000000000000000000000000050
:1000B0000000000000000000000000000000000040
:1000C0000000000000000000000000000000000030
:1000D0000000000000000000000000000000000020
:1000E0000000000000000000000000000000000010
:1000F000002E9DD7012E99D700001200956A836AC1
:100100000DEC00F013EC00F011EC00F013EC00F03B
:02011000F7D71F
:00000001FF
